###############################################################################
#
# IAR ANSI C/C++ Compiler V7.70.1.11437/W32 for ARM       19/Apr/2018  05:30:32
# Copyright 1999-2016 IAR Systems AB.
#
#    Cpu mode     =  thumb
#    Endian       =  little
#    Source file  =  
#        C:\proj\Esel\KL16_SMAC_MQXLite_SHT31\app\Sources\usr_tasks.c
#    Command line =  
#        C:\proj\Esel\KL16_SMAC_MQXLite_SHT31\app\Sources\usr_tasks.c
#        --preprocess "C:\proj\Esel\KL16_SMAC_MQXLite_SHT31\app\kl16z128_eslora
#        MQXLite\List" -lcN
#        "C:\proj\Esel\KL16_SMAC_MQXLite_SHT31\app\kl16z128_eslora
#        MQXLite\List" -o
#        "C:\proj\Esel\KL16_SMAC_MQXLite_SHT31\app\kl16z128_eslora MQXLite\Obj"
#        --no_cse --no_unroll --no_inline --no_code_motion --no_tbaa
#        --no_clustering --no_scheduling --debug --endian=little
#        --cpu=Cortex-M0+ -e --fpu=None --dlib_config "C:\Program Files
#        (x86)\IAR Systems\Embedded Workbench
#        7.5\arm\INC\c\DLib_Config_Normal.h" -I
#        C:\proj\Esel\KL16_SMAC_MQXLite_SHT31\app\Interface\ -I
#        C:\proj\Esel\KL16_SMAC_MQXLite_SHT31\app\Sources\ -I
#        C:\proj\Esel\KL16_SMAC_MQXLite_SHT31\app\..\MQXLITE\include\ -I
#        C:\proj\Esel\KL16_SMAC_MQXLite_SHT31\app\..\MQXLITE\config\ -I
#        C:\proj\Esel\KL16_SMAC_MQXLite_SHT31\app\..\MQXLITE\psp\cortex_m\ -I
#        C:\proj\Esel\KL16_SMAC_MQXLite_SHT31\app\..\MQXLITE\psp\cortex_m\compiler\iar\
#        -I C:\proj\Esel\KL16_SMAC_MQXLite_SHT31\app\..\drv\Generated_Code\ -I
#        C:\proj\Esel\KL16_SMAC_MQXLite_SHT31\app\..\drv\PExSupport\Kinetis\ -I
#        C:\proj\Esel\KL16_SMAC_MQXLite_SHT31\app\..\framework\OSAbstraction\MQXLite\Interface\
#        -I
#        C:\proj\Esel\KL16_SMAC_MQXLite_SHT31\app\..\framework\RNG\Interface\
#        -I C:\proj\Esel\KL16_SMAC_MQXLite_SHT31\app\..\framework\Common\ -I
#        C:\proj\Esel\KL16_SMAC_MQXLite_SHT31\app\..\framework\Utils\Lists\ -I
#        C:\proj\Esel\KL16_SMAC_MQXLite_SHT31\app\..\framework\Utils\FunctionLib\
#        -I C:\proj\Esel\KL16_SMAC_MQXLite_SHT31\app\..\framework\Utils\SecLib\
#        -I
#        C:\proj\Esel\KL16_SMAC_MQXLite_SHT31\app\..\framework\FSCI\Interface\
#        -I C:\proj\Esel\KL16_SMAC_MQXLite_SHT31\app\..\framework\FSCI\Source\
#        -I
#        C:\proj\Esel\KL16_SMAC_MQXLite_SHT31\app\..\framework\Panic\Interface\
#        -I
#        C:\proj\Esel\KL16_SMAC_MQXLite_SHT31\app\..\framework\SerialManager\Interface\
#        -I
#        C:\proj\Esel\KL16_SMAC_MQXLite_SHT31\app\..\framework\MemManager\Interface\
#        -I
#        C:\proj\Esel\KL16_SMAC_MQXLite_SHT31\app\..\framework\TimersManager\Interface\
#        -I
#        C:\proj\Esel\KL16_SMAC_MQXLite_SHT31\app\..\framework\TimersManager\Source\
#        -I
#        C:\proj\Esel\KL16_SMAC_MQXLite_SHT31\app\..\framework\Messaging\Interface\
#        -I
#        C:\proj\Esel\KL16_SMAC_MQXLite_SHT31\app\..\framework\RNG\Interface\
#        -I C:\proj\Esel\KL16_SMAC_MQXLite_SHT31\app\..\framework\RNG\Source\
#        -I
#        C:\proj\Esel\KL16_SMAC_MQXLite_SHT31\app\..\ieee_802_15_4\Phy\Interface\
#        -I
#        C:\proj\Esel\KL16_SMAC_MQXLite_SHT31\app\..\ieee_802_15_4\SMAC\Interface\
#        -I
#        C:\proj\Esel\KL16_SMAC_MQXLite_SHT31\app\..\drv\Portable\ADC\Interface\
#        -I
#        C:\proj\Esel\KL16_SMAC_MQXLite_SHT31\app\..\drv\Portable\BME\Interface\
#        -I
#        C:\proj\Esel\KL16_SMAC_MQXLite_SHT31\app\..\drv\Portable\Flash\Interface\
#        -I
#        C:\proj\Esel\KL16_SMAC_MQXLite_SHT31\app\..\drv\Portable\I2C\Interface\
#        -I
#        C:\proj\Esel\KL16_SMAC_MQXLite_SHT31\app\..\drv\Portable\LED\Interface\
#        -I
#        C:\proj\Esel\KL16_SMAC_MQXLite_SHT31\app\..\drv\Portable\LLWU\Interface\
#        -I
#        C:\proj\Esel\KL16_SMAC_MQXLite_SHT31\app\..\drv\Portable\LPTMR\Interface\
#        -I
#        C:\proj\Esel\KL16_SMAC_MQXLite_SHT31\app\..\drv\Portable\SMC\Interface\
#        -I
#        C:\proj\Esel\KL16_SMAC_MQXLite_SHT31\app\..\drv\Portable\MCG\Interface\
#        -I C:\proj\Esel\KL16_SMAC_MQXLite_SHT31\app\..\drv\Portable\Reset\ -On
#    Locale       =  Japanese_Japan.932
#    List file    =  
#        C:\proj\Esel\KL16_SMAC_MQXLite_SHT31\app\kl16z128_eslora
#        MQXLite\List\usr_tasks.lst
#    Object file  =  
#        C:\proj\Esel\KL16_SMAC_MQXLite_SHT31\app\kl16z128_eslora
#        MQXLite\Obj\usr_tasks.o
#
###############################################################################

C:\proj\Esel\KL16_SMAC_MQXLite_SHT31\app\Sources\usr_tasks.c
      1          /*****************************************************************************
      2          * usr_tasks file.
      3          *
      4          * (c) Copyright 2016, EASEL, Inc.  All rights reserved.
      5          *
      6          * No part of this document may be reproduced in any form - including copied,
      7          * transcribed, printed or by any electronic means - without specific written
      8          * permission from EASEL.
      9          *
     10          *****************************************************************************/
     11          
     12          #include <string.h>
     13          #include "Application_Interface.h"
     14          #include "flash.h"
     15          #include "LED.h"
     16          #include "usr_tasks.h"
     17          #include "message.h"
     18          #include "mqxlite.h"
     19          #include "mqxlite_prv.h"
     20          
     21          // Add Y.Yonezawa
     22          #include "fdc2214.h"
     23          
     24          /************************************************************************************
     25          *************************************************************************************
     26          * Private macros
     27          *************************************************************************************
     28          ************************************************************************************/
     29          
     30          #define ESLORA			"ESLORA"
     31          #define UART_CHK_TIME	500
     32          
     33          
     34          /************************************************************************************
     35          *************************************************************************************
     36          * Private prototypes
     37          *************************************************************************************
     38          ************************************************************************************/
     39          
     40          static void MessageTask( void const* );
     41          static void InitProject( void );
     42          static void PORT_Init( void );
     43          static void ReadConfigParam( void );
     44          static void UartRxCallback( void* );
     45          static void Switch_Init( void );
     46          static void UartCheckTimerCallBack ( void* );
     47          
     48          
     49          /************************************************************************************
     50          *************************************************************************************
     51          * Private memory declarations
     52          *************************************************************************************
     53          ************************************************************************************/
     54          
     55          
     56          /************************************************************************************
     57          *************************************************************************************
     58          * Public memory declarations
     59          *************************************************************************************
     60          ************************************************************************************/
     61          
     62          TERMINAL_PARAM  mTermParam;
     63          uint8_t         CommDataBuffer[MAX_COMM_SIZE];
     64          uint8_t         SendDataBuffer[MAX_COMM_SIZE];
     65          uint16_t        CommDataIndex;
     66          bool_t          evDataFromUART;
     67          bool_t          gEnterIdle;
     68          tmrTimerID_t    IntervalTmr;
     69          tmrTimerID_t    WaitSendTmr;
     70          tmrTimerID_t    SendTimeTmr;
     71          uint8_t         mAppSer;
     72          osThreadId      myAppId;
     73          tmrTimerID_t    UartCheckTmr;
     74          uint8_t         SendDataLen;
     75          
     76          
     77          /************************************************************************************
     78          *************************************************************************************
     79          * Public functions
     80          *************************************************************************************
     81          ************************************************************************************/
     82          
     83          void MainThread( void const* );
     84          
     85          void Debug_Print( char* pString )
     86          {
     87          #if 0
     88              Serial_Print( mAppSer, pString, gAllowToBlock_d );
     89          #endif
     90          }
     91          
     92          void Debug_PrintDec( uint32_t nr )
     93          {
     94          #if 0
     95              Serial_PrintDec( mAppSer, nr );
     96          #endif
     97          }
     98          
     99          void Debug_PrintHex( uint8_t *hex, uint8_t len, uint8_t flags )
    100          {
    101          #if 0
    102              Serial_PrintHex( mAppSer, hex, len, flags );
    103          #endif
    104          }
    105          
    106          void Terminal_Print( char* pString )
    107          {
    108              if( TERMINAL == mTermParam.Mode )
    109              {
    110                  Serial_Print( mAppSer, pString, gAllowToBlock_d );
    111              }
    112          }
    113          
    114          void Terminal_PrintDec( uint32_t nr )
    115          {
    116              if( TERMINAL == mTermParam.Mode )
    117              {
    118                  Serial_PrintDec( mAppSer, nr );
    119              }
    120          }
    121          
    122          void Terminal_PrintHex( uint8_t *hex, uint8_t len, uint8_t flags )
    123          {
    124              if( TERMINAL == mTermParam.Mode )
    125              {
    126                  Serial_PrintHex( mAppSer, hex, len, flags );
    127              }
    128          }
    129          
    130          void Terminal_PrintBin( uint8_t *data, uint8_t len )
    131          {
    132              if( TERMINAL == mTermParam.Mode )
    133              {
    134                  Serial_PrintBin( mAppSer, data, len, gAllowToBlock_d );
    135              }
    136          }
    137          
    138          void Processor_Print( char* pString )
    139          {
    140              if( PROCESSOR == mTermParam.Mode )
    141              {
    142                  Serial_Print( mAppSer, pString, gAllowToBlock_d );
    143              }
    144          }
    145          
    146          void Processor_PrintDec( uint32_t nr )
    147          {
    148              if( PROCESSOR == mTermParam.Mode )
    149              {
    150                  Serial_PrintDec( mAppSer, nr );
    151              }
    152          }
    153          
    154          void Processor_PrintHex( uint8_t *hex, uint8_t len, uint8_t flags )
    155          {
    156              if( PROCESSOR == mTermParam.Mode )
    157              {
    158                  Serial_PrintHex( mAppSer, hex, len, flags );
    159              }
    160          }
    161          
    162          void Processor_PrintBin( uint8_t *data, uint8_t len )
    163          {
    164              if( PROCESSOR == mTermParam.Mode )
    165              {
    166                  Serial_PrintBin( mAppSer, data, len, gAllowToBlock_d );
    167              }
    168          }
    169          
    170          /************************************************************************************
    171          *
    172          * MainThread
    173          *
    174          * Interface assumptions:
    175          *     void const* taskParam
    176          *
    177          * Return value:
    178          *     None
    179          *
    180          ************************************************************************************/
    181          void MainThread( void const* taskParam )
    182          {
    183              MEM_Init();
    184              FLASH_Init();
    185          
    186              PORT_Init();
    187              TMR_Init();
    188              LED_Init();
    189              
    190              // Add Y.Yonezawa
    191              I2C0_Init();
    192              
    193              SerialManager_Init();
    194          
    195              MessageTask( taskParam );
    196          }
    197          
    198          
    199          /************************************************************************************
    200          *************************************************************************************
    201          * Private functions
    202          *************************************************************************************
    203          ************************************************************************************/
    204          /************************************************************************************
    205          *
    206          * MessageTask
    207          *
    208          * Interface assumptions:
    209          *     void const *argument
    210          *
    211          * Return value:
    212          *     None
    213          *
    214          ************************************************************************************/
    215          
    216          /************************************************************************************
    217          *
    218          * MessageTask
    219          *
    220          * Interface assumptions:
    221          *     void const *argument
    222          *
    223          * Return value:
    224          *     None
    225          *
    226          ************************************************************************************/
    227          static void MessageTask( void const *argument )
    228          {
    229              /* Initialization of global variables */
    230              InitProject();
    231          
    232              /* Read configuration parameter from internal FlashROM */
    233              ReadConfigParam();
    234          
    235              /* Get handle of uart interface */
    236              Serial_InitInterface( &mAppSer, gSerialMgrUart_c, 1 );
    237          
    238              /* Set default baud */
    239              Serial_SetBaudRate( mAppSer, mTermParam.Baudrate );
    240          
    241              if( RCM_SRS0 != RCM_SRS0_WAKEUP_MASK )
    242              {
    243          	    /* Start Led Flashing */
    244          	    LED_StartFlash( LED_ALL );
    245          
    246          	    /* show configuration menu */
    247          	    if( (CONFIG == mTermParam.Operation) || !(GPIOC_PDIR & (1<<1)) )
    248          	    {
    249                      Serial_SetRxCallBack( mAppSer, CommRxCallBack, NULL );
    250          
    251          	        DoConfiguration();
    252          	    }
    253          
    254          	    /* Stop Led Flashing */
    255          	    LED_StopFlash( LED_ALL );
    256              }
    257              else
    258              {
    259                  gEnterIdle = FALSE;
    260              }
    261          
    262          	/* Initialize Switch */
    263              if( (TIMER_WAKEUP == mTermParam.Sleep) || (GPIOC_PDIR & (1<<1)) )
    264              {
    265                  gEnterIdle = TRUE;
    266              }
    267              else
    268              {
    269                  gEnterIdle = FALSE;
    270              }
    271          
    272              Switch_Init();
    273          
    274              /* replace UART callback function */
    275              Serial_SetRxCallBack( mAppSer, UartRxCallback, NULL );
    276              
    277              /* Add Y.Yonezawa */
    278              //SHT31_Init();
    279              FDC2214_Init_2ch();
    280          
    281              DoOperation();
    282          }
    283          
    284          /************************************************************************************
    285          *
    286          * InitProject
    287          *
    288          * Interface assumptions:
    289          *     None
    290          *
    291          * Return value:
    292          *     None
    293          *
    294          ************************************************************************************/
    295          static void InitProject( void )
    296          {
    297              /* Global Data init */
    298              CommDataIndex       = 0;
    299              evDataFromUART      = FALSE;
    300              gEnterIdle          = TRUE;
    301              myAppId             = osThreadGetId();          // Get application thread id
    302              SendDataLen         = 0;
    303          }
    304          
    305          /************************************************************************************
    306          *
    307          * PORT_Init
    308          *
    309          * Interface assumptions:
    310          *     None
    311          *
    312          * Return value:
    313          *     None
    314          *
    315          ************************************************************************************/
    316          static void PORT_Init( void )
    317          {
    318              /* Port A */
    319              PORTA_PCR18 = PORT_PCR_MUX(1);
    320              GPIOA_PDDR |= (uint32_t)(1<<18);
    321              PORTA_PCR19 = PORT_PCR_MUX(1);
    322              GPIOA_PDDR |= (uint32_t)(1<<19);
    323          
    324              /* Port B */
    325              /*
    326              PORTB_PCR0 = PORT_PCR_MUX(1);
    327              GPIOB_PDDR |= (uint32_t)(1<<0);
    328              PORTB_PCR1 = PORT_PCR_MUX(1);
    329              GPIOB_PDDR |= (uint32_t)(1<<1);
    330              */
    331          
    332              /* Port C */
    333              PORTC_PCR1 = PORT_PCR_MUX(1);
    334              GPIOC_PDDR &= (uint32_t)~(uint32_t)(1<<1);
    335          
    336              /* Port E */
    337              PORTE_PCR0 = PORT_PCR_MUX(1);
    338              GPIOE_PDDR |= (uint32_t)(1<<0);
    339              PORTE_PCR18 = PORT_PCR_MUX(1);
    340              GPIOE_PDDR |= (uint32_t)(1<<18);
    341              PORTE_PCR19 = PORT_PCR_MUX(1);
    342              GPIOE_PDDR |= (uint32_t)(1<<19);
    343              PORTE_PCR30 = PORT_PCR_MUX(1);
    344              GPIOE_PDDR |= (uint32_t)(1<<30);
    345          }
    346          
    347          /************************************************************************************
    348          *
    349          * Switch_Init
    350          *
    351          * Interface assumptions:
    352          *     None
    353          *
    354          * Return value:
    355          *     None
    356          *
    357          ************************************************************************************/
    358          static void Switch_Init( void )
    359          {
    360              PORTC_PCR1 = PORT_PCR_MUX(1)  | PORT_PCR_ISF_MASK |
    361                           PORT_PCR_PE_MASK | PORT_PCR_PS_MASK  | PORT_PCR_IRQC(0x09);
    362          
    363              if( osInstallIsr(INT_PORTC_PORTD, Switch_Interrupt, NULL) != NULL )
    364              {
    365                  /* Set PORTC interrupt priority level 2 */
    366                  NVIC_IPR7 &= 0x3FFFFFFF;
    367                  NVIC_IPR7 |= 0x80000000;
    368          
    369                  /* Enable Interrupt */
    370                  NVIC_ICPR |= (uint32_t)(1 << ((INT_PORTC_PORTD-16)%32));
    371                  NVIC_ISER |= (uint32_t)(1 << ((INT_PORTC_PORTD-16)%32));
    372              }
    373          }
    374          
    375          /************************************************************************************
    376          *
    377          * ReadConfigParam
    378          *
    379          * Interface assumptions:
    380          *     None
    381          *
    382          * Return value:
    383          *     None
    384          *
    385          ************************************************************************************/
    386          static void ReadConfigParam( void )
    387          {
    388              int ret = 0;
    389          
    390          
    391              FLib_MemSet16( &mTermParam, 0x00, sizeof(mTermParam) );
    392          
    393              *((uint16_t*)&mTermParam.Once[0]) = FLASH_ReadShortWord( FLASH_OFS_ONCE     );
    394              *((uint16_t*)&mTermParam.Once[2]) = FLASH_ReadShortWord( FLASH_OFS_ONCE + 2 );
    395              *((uint16_t*)&mTermParam.Once[4]) = FLASH_ReadShortWord( FLASH_OFS_ONCE + 4 );
    396          
    397              ret = strncmp( (char*)mTermParam.Once, ESLORA, 6 );
    398              if( 0 == ret )
    399              {
    400                  /* baudrate */
    401                  mTermParam.Baudrate     = FLASH_ReadLongWord( FLASH_OFS_BAUDRATE );
    402          
    403                  /* sleeptime */
    404                  mTermParam.SleepTime    = FLASH_ReadLongWord( FLASH_OFS_SLEEPTIME );
    405          
    406                  /* power */
    407                  mTermParam.Power        = (int32_t)FLASH_ReadLongWord( FLASH_OFS_POWER );
    408          
    409                  /* ack */
    410                  mTermParam.Ack          = FLASH_ReadShortWord( FLASH_OFS_ACK );
    411          
    412                  /* bw */
    413                  mTermParam.Bw           = FLASH_ReadShortWord( FLASH_OFS_BW );
    414          
    415                  /* channel */
    416                  mTermParam.Channel      = FLASH_ReadShortWord( FLASH_OFS_CHANNEL );
    417          
    418                  /* dstid */
    419                  mTermParam.DstId        = FLASH_ReadShortWord( FLASH_OFS_DSTID );
    420          
    421                  /* endid */
    422                  mTermParam.EndId        = FLASH_ReadShortWord( FLASH_OFS_ENDID );
    423          
    424                  /* hopcount */
    425                  mTermParam.HopCnt       = FLASH_ReadShortWord( FLASH_OFS_HOPCNT );
    426          
    427                  /* mode */
    428                  mTermParam.Mode         = FLASH_ReadShortWord( FLASH_OFS_MODE );
    429          
    430                  /* node */
    431                  mTermParam.Node         = FLASH_ReadShortWord( FLASH_OFS_NODE );
    432          
    433                  /* operation */
    434                  mTermParam.Operation    = FLASH_ReadShortWord( FLASH_OFS_OPERATION );
    435          
    436                  /* panid */
    437                  mTermParam.PanId        = FLASH_ReadShortWord( FLASH_OFS_PANID );
    438          
    439                  /* rcvid */
    440                  mTermParam.RcvId        = FLASH_ReadShortWord( FLASH_OFS_RCVID );
    441          
    442                  /* retry */
    443                  mTermParam.Retry        = FLASH_ReadShortWord( FLASH_OFS_RETRY );
    444          
    445                  /* route1 */
    446                  mTermParam.Route[0]     = FLASH_ReadShortWord( FLASH_OFS_ROUTE1 );
    447          
    448                  /* route2 */
    449                  mTermParam.Route[1]     = FLASH_ReadShortWord( FLASH_OFS_ROUTE2 );
    450          
    451                  /* rssi */
    452                  mTermParam.Rssi         = FLASH_ReadShortWord( FLASH_OFS_RSSI );
    453          
    454                  /* sf */
    455                  mTermParam.Sf           = FLASH_ReadShortWord( FLASH_OFS_SF );
    456          
    457                  /* sleep */
    458                  mTermParam.Sleep        = FLASH_ReadShortWord( FLASH_OFS_SLEEP );
    459          
    460                  /* srcid */
    461                  mTermParam.SrcId        = FLASH_ReadShortWord( FLASH_OFS_SRCID );
    462          
    463                  /* transmode */
    464                  mTermParam.TransMode    = FLASH_ReadShortWord( FLASH_OFS_TRANSMODE );
    465          
    466                  /* format */
    467                  mTermParam.Format       = FLASH_ReadShortWord( FLASH_OFS_FORMAT );
    468          
    469                  /* sendtime */
    470                  mTermParam.SendTime     = FLASH_ReadLongWord( FLASH_OFS_SENDTIME );
    471          
    472                  /* senddata */
    473                  FLib_MemCpy( mTermParam.SendData, (uint8_t*)(FLASH_PARAM_TOP + FLASH_OFS_SENDDATA), 52 );
    474              }
    475              else
    476              {
    477                  mTermParam.Once[0] = 'E';
    478                  mTermParam.Once[1] = 'S';
    479                  mTermParam.Once[2] = 'L';
    480                  mTermParam.Once[3] = 'O';
    481                  mTermParam.Once[4] = 'R';
    482                  mTermParam.Once[5] = 'A';
    483          
    484                  SettingDefaultValue();
    485              }
    486          
    487              Serial_SetBaudRate( mAppSer, mTermParam.Baudrate );
    488          }
    489          
    490          /************************************************************************************
    491          *
    492          * SettingDefaultValue
    493          *
    494          * Interface assumptions:
    495          *     None
    496          *
    497          * Return value:
    498          *     None
    499          *
    500          ************************************************************************************/
    501          void SettingDefaultValue( void )
    502          {
    503              /* baudrate */
    504              mTermParam.Baudrate     = gUARTBaudRate115200_c;
    505          
    506              /* sleeptime */
    507              mTermParam.SleepTime    = 50;
    508          
    509              /* power */
    510              mTermParam.Power        = 13;
    511          
    512              /* ack */
    513              mTermParam.Ack          = MODE_ON;
    514          
    515              /* bw */
    516              mTermParam.Bw           = BANDWIDTH125;
    517          
    518              /* channel */
    519              mTermParam.Channel      = 1;
    520          
    521              /* dstid */
    522              mTermParam.DstId        = 0x0000;
    523          
    524              /* endid */
    525              mTermParam.EndId        = 0x0000;
    526          
    527              /* hopcount */
    528              mTermParam.HopCnt       = 0x0001;
    529          
    530              /* node */
    531              mTermParam.Node         = END_DEVICE;
    532          
    533              /* operation */
    534              mTermParam.Operation    = CONFIG;
    535          
    536              /* panid */
    537              mTermParam.PanId        = 0x0001;
    538          
    539              /* rcvid */
    540              mTermParam.RcvId        = MODE_OFF;
    541          
    542              /* retry */
    543              mTermParam.Retry        = 3;
    544          
    545              /* route1 */
    546              mTermParam.Route[0]     = 0x0001;
    547          
    548              /* route2 */
    549              mTermParam.Route[1]     = 0x0001;
    550          
    551              /* rssi */
    552              mTermParam.Rssi         = MODE_OFF;
    553          
    554              /* sf */
    555              mTermParam.Sf           = 7;
    556          
    557              /* sleep */
    558              mTermParam.Sleep        = NO_SLEEP;
    559          
    560              /* srcid */
    561              mTermParam.SrcId        = 0x0001;
    562          
    563              /* transmode */
    564              mTermParam.TransMode    = TRANS_PAYLOAD;
    565          
    566              /* format */
    567              mTermParam.Format       = FMT_ASCII;
    568          
    569              /* sendtime */
    570              mTermParam.SendTime     = 0;
    571          
    572              /* senddata */
    573              mTermParam.SendData[0]  = '\0';
    574          }
    575          
    576          
    577          /************************************************************************************
    578          * User's Callbacks
    579          ************************************************************************************/
    580          
    581          /************************************************************************************
    582          *
    583          * UartRxCallback
    584          *
    585          * Interface assumptions:
    586          *     void* param
    587          *
    588          * Return value:
    589          *     None
    590          *
    591          ************************************************************************************/
    592          static void UartRxCallback( void* param )
    593          {
    594              static uint16_t rcvlen = 0;
    595              uint32_t length;
    596              uint16_t readBytes;
    597              int      ret;
    598          
    599          
    600              while( gSerial_Success_c == Serial_GetByteFromRxBuffer(mAppSer, &CommDataBuffer[CommDataIndex], &readBytes) )
    601              {
    602                  if( 0 == readBytes )
    603                  {
    604                      break;
    605                  }
    606          
    607                  if( FMT_ASCII == mTermParam.Format )
    608                  {
    609                      if( (0 < CommDataIndex) && (('\r' == CommDataBuffer[CommDataIndex-1]) && ('\n' == CommDataBuffer[CommDataIndex])) )
    610                      {
    611                          CommDataBuffer[CommDataIndex-1] = '\0';
    612                          CommDataBuffer[CommDataIndex]   = '\0';
    613          
    614                          CommDataIndex = 0;
    615          
    616                          ret = strcmp( (char*)CommDataBuffer, "config" );
    617                          if( 0 == ret )
    618                          {
    619                              mTermParam.Operation = CONFIG;
    620          
    621                              _int_disable();
    622          
    623                              FLASH_EraseSector( FLASH_PARAM_TOP );
    624          
    625                              length = sizeof(mTermParam) + ((sizeof(mTermParam) % 4) ? (4 - sizeof(mTermParam) % 4) : 0);
    626          
    627                              FLASH_ProgramSectionByLongs( FLASH_PARAM_TOP, (uint32_t*)&mTermParam, (length / sizeof(uint32_t)) );
    628          
    629                              _int_enable();
    630                          }
    631                          else
    632                          {
    633                              /* ignore only enter key */
    634                              if ( '\0' == CommDataBuffer[0] )
    635                              {
    636                                  return;
    637                              }
    638          
    639                              SendDataLen = strlen( (char*)CommDataBuffer );
    640          
    641                              strcpy( (char*)SendDataBuffer, (char*)CommDataBuffer );
    642          
    643                              osSignalSet( myAppId, EVENT_UART_RX );
    644                          }
    645                      }
    646                      else
    647                      {
    648                          CommDataIndex++;
    649                          if( MAX_COMM_SIZE <= CommDataIndex )
    650                          {
    651                              CommDataIndex = 0;
    652                          }
    653                      }
    654                  }
    655                  else
    656                  {
    657                      /* receive length */
    658                      if( 0 == CommDataIndex )
    659                      {
    660                          rcvlen = CommDataBuffer[0];
    661          
    662                          CommDataIndex++;
    663          
    664                          TMR_StartSingleShotTimer( UartCheckTmr, UART_CHK_TIME, UartCheckTimerCallBack, NULL );
    665                      }
    666                      else if( (5 == CommDataIndex) && (0 == strcmp( (char*)CommDataBuffer, "config" )) )
    667                      {
    668                          TMR_StopTimer( UartCheckTmr );
    669          
    670                          mTermParam.Operation = CONFIG;
    671          
    672                          _int_disable();
    673          
    674                          FLASH_EraseSector( FLASH_PARAM_TOP );
    675          
    676                          length = sizeof(mTermParam) + ((sizeof(mTermParam) % 4) ? (4 - sizeof(mTermParam) % 4) : 0);
    677          
    678                          FLASH_ProgramSectionByLongs( FLASH_PARAM_TOP, (uint32_t*)&mTermParam, (length / sizeof(uint32_t)) );
    679          
    680                          _int_enable();
    681                      }
    682                      /* receive end */
    683                      else if( rcvlen == CommDataIndex )
    684                      {
    685                          TMR_StopTimer( UartCheckTmr );
    686          
    687                          SendDataLen = rcvlen;
    688          
    689                          FLib_MemCpy( SendDataBuffer, &CommDataBuffer[1], CommDataIndex );
    690          
    691                          osSignalSet( myAppId, EVENT_UART_RX );
    692          
    693                          CommDataIndex = 0;
    694                      }
    695                      /* other */
    696                      else
    697                      {
    698                          TMR_StopTimer( UartCheckTmr );
    699          
    700                          CommDataIndex++;
    701                          if( MAX_COMM_SIZE <= CommDataIndex )
    702                          {
    703                              CommDataIndex = 0;
    704                          }
    705          
    706                          TMR_StartSingleShotTimer( UartCheckTmr, UART_CHK_TIME, UartCheckTimerCallBack, NULL );
    707                      }
    708                  }
    709              }
    710          }
    711          
    712          /************************************************************************************
    713          *
    714          * UartCheckTimerCallBack
    715          *
    716          * Interface assumptions:
    717          *     param       timer ID
    718          *
    719          * Return value:
    720          *     None
    721          *
    722          ************************************************************************************/
    723          static void UartCheckTimerCallBack( void* param )
    724          {
    725              CommDataIndex = 0;
    726          }
    727          
    728          

   Maximum stack usage in bytes:

   .cstack Function
   ------- --------
       0   Debug_Print
       0   Debug_PrintDec
       0   Debug_PrintHex
       8   InitProject
         8   -> osThreadGetId
       8   MainThread
         8   -> FLASH_Init
         8   -> I2C0_Init
         8   -> LED_Init
         8   -> MEM_Init
         8   -> MessageTask
         8   -> PORT_Init
         8   -> SerialManager_Init
         8   -> TMR_Init
       8   MessageTask
         8   -> DoConfiguration
         8   -> DoOperation
         8   -> FDC2214_Init_2ch
         8   -> InitProject
         8   -> LED_StartFlash
         8   -> LED_StopFlash
         8   -> ReadConfigParam
         8   -> Serial_InitInterface
         8   -> Serial_SetBaudRate
         8   -> Serial_SetRxCallBack
         8   -> Switch_Init
       0   PORT_Init
       8   Processor_Print
         8   -> Serial_Print
      16   Processor_PrintBin
        16   -> Serial_PrintBin
       8   Processor_PrintDec
         8   -> Serial_PrintDec
      16   Processor_PrintHex
        16   -> Serial_PrintHex
       8   ReadConfigParam
         8   -> FLASH_ReadLongWord
         8   -> FLASH_ReadShortWord
         8   -> FLib_MemCpy
         8   -> FLib_MemSet
         8   -> Serial_SetBaudRate
         8   -> SettingDefaultValue
         8   -> strncmp
       0   SettingDefaultValue
       8   Switch_Init
         8   -> osInstallIsr
       8   Terminal_Print
         8   -> Serial_Print
      16   Terminal_PrintBin
        16   -> Serial_PrintBin
       8   Terminal_PrintDec
         8   -> Serial_PrintDec
      16   Terminal_PrintHex
        16   -> Serial_PrintHex
       0   UartCheckTimerCallBack
      24   UartRxCallback
        24   -> FLASH_EraseSector
        24   -> FLASH_ProgramSectionByLongs
        24   -> FLib_MemCpy
        24   -> Serial_Read
        24   -> TMR_StartSingleShotTimer
        24   -> TMR_StopTimer
        24   -> _int_disable
        24   -> _int_enable
        24   -> osSignalSet
        24   -> strcmp
        24   -> strcpy
        24   -> strlen


   Section sizes:

   Bytes  Function/Label
   -----  --------------
       4  ??DataTable11
       4  ??DataTable11_1
       4  ??DataTable11_2
       4  ??DataTable11_3
       4  ??DataTable11_4
       4  ??DataTable11_5
       4  ??DataTable11_6
       4  ??DataTable12
       4  ??DataTable12_1
       4  ??DataTable12_10
       4  ??DataTable12_11
       4  ??DataTable12_12
       4  ??DataTable12_13
       4  ??DataTable12_2
       4  ??DataTable12_3
       4  ??DataTable12_4
       4  ??DataTable12_5
       4  ??DataTable12_6
       4  ??DataTable12_7
       4  ??DataTable12_8
       4  ??DataTable12_9
       4  ??DataTable13
       4  ??DataTable13_1
       4  ??DataTable13_10
       4  ??DataTable13_11
       4  ??DataTable13_12
       4  ??DataTable13_13
       4  ??DataTable13_14
       4  ??DataTable13_15
       4  ??DataTable13_16
       4  ??DataTable13_17
       4  ??DataTable13_18
       4  ??DataTable13_19
       4  ??DataTable13_2
       4  ??DataTable13_20
       4  ??DataTable13_21
       4  ??DataTable13_22
       4  ??DataTable13_23
       4  ??DataTable13_24
       4  ??DataTable13_25
       4  ??DataTable13_26
       4  ??DataTable13_27
       4  ??DataTable13_28
       4  ??DataTable13_3
       4  ??DataTable13_4
       4  ??DataTable13_5
       4  ??DataTable13_6
       4  ??DataTable13_7
       4  ??DataTable13_8
       4  ??DataTable13_9
       4  ??DataTable15
       4  ??DataTable15_1
       4  ??DataTable15_10
       4  ??DataTable15_11
       4  ??DataTable15_12
       4  ??DataTable15_13
       4  ??DataTable15_2
       4  ??DataTable15_3
       4  ??DataTable15_4
       4  ??DataTable15_5
       4  ??DataTable15_6
       4  ??DataTable15_7
       4  ??DataTable15_8
       4  ??DataTable15_9
       4  ??DataTable9
       8  ?_0
       8  ?_1
     256  CommDataBuffer
       2  CommDataIndex
       2  Debug_Print
       2  Debug_PrintDec
       2  Debug_PrintHex
      36  InitProject
       1  IntervalTmr
      40  MainThread
     152  MessageTask
     152  PORT_Init
      26  Processor_Print
      32  Processor_PrintBin
      24  Processor_PrintDec
      36  Processor_PrintHex
     366  ReadConfigParam
     256  SendDataBuffer
       1  SendDataLen
       1  SendTimeTmr
     154  SettingDefaultValue
      78  Switch_Init
      26  Terminal_Print
      32  Terminal_PrintBin
      24  Terminal_PrintDec
      36  Terminal_PrintHex
       8  UartCheckTimerCallBack
       1  UartCheckTmr
     458  UartRxCallback
       1  WaitSendTmr
       1  evDataFromUART
       1  gEnterIdle
       1  mAppSer
     168  mTermParam
       4  myAppId
       2  rcvlen

 
   696 bytes in section .bss
    16 bytes in section .rodata
 1 946 bytes in section .text
 
 1 946 bytes of CODE  memory
    16 bytes of CONST memory
   696 bytes of DATA  memory

Errors: none
Warnings: none
